{
  "contractName": "DlishBlockchain",
  "abi": [
    {
      "inputs": [
        {
          "internalType": "address",
          "name": "_d2gTokenAddress",
          "type": "address"
        }
      ],
      "stateMutability": "nonpayable",
      "type": "constructor"
    },
    {
      "inputs": [
        {
          "internalType": "address",
          "name": "",
          "type": "address"
        }
      ],
      "name": "deliveryperson",
      "outputs": [
        {
          "internalType": "bool",
          "name": "",
          "type": "bool"
        }
      ],
      "stateMutability": "view",
      "type": "function",
      "constant": true
    },
    {
      "inputs": [
        {
          "internalType": "uint256",
          "name": "",
          "type": "uint256"
        }
      ],
      "name": "orders",
      "outputs": [
        {
          "internalType": "address",
          "name": "Customer",
          "type": "address"
        },
        {
          "internalType": "address",
          "name": "Restaurant",
          "type": "address"
        },
        {
          "internalType": "address",
          "name": "DeliveryPerson",
          "type": "address"
        },
        {
          "internalType": "string",
          "name": "dishid_quantity",
          "type": "string"
        },
        {
          "internalType": "uint256",
          "name": "Price",
          "type": "uint256"
        }
      ],
      "stateMutability": "view",
      "type": "function",
      "constant": true
    },
    {
      "inputs": [
        {
          "internalType": "address",
          "name": "",
          "type": "address"
        }
      ],
      "name": "restaurant",
      "outputs": [
        {
          "internalType": "bool",
          "name": "",
          "type": "bool"
        }
      ],
      "stateMutability": "view",
      "type": "function",
      "constant": true
    },
    {
      "inputs": [],
      "name": "RegisterRestaurant",
      "outputs": [],
      "stateMutability": "nonpayable",
      "type": "function"
    },
    {
      "inputs": [],
      "name": "RegisterDeliveryPerson",
      "outputs": [],
      "stateMutability": "nonpayable",
      "type": "function"
    },
    {
      "inputs": [
        {
          "internalType": "address",
          "name": "_restaurantaddress",
          "type": "address"
        },
        {
          "internalType": "uint256",
          "name": "_amount",
          "type": "uint256"
        },
        {
          "internalType": "string",
          "name": "_dishid_quantity",
          "type": "string"
        }
      ],
      "name": "PlaceOrder",
      "outputs": [],
      "stateMutability": "nonpayable",
      "type": "function"
    },
    {
      "inputs": [
        {
          "internalType": "uint256",
          "name": "_orderId",
          "type": "uint256"
        }
      ],
      "name": "AcceptOrder",
      "outputs": [],
      "stateMutability": "nonpayable",
      "type": "function"
    },
    {
      "inputs": [
        {
          "internalType": "uint256",
          "name": "_orderId",
          "type": "uint256"
        }
      ],
      "name": "OutForDelivery",
      "outputs": [],
      "stateMutability": "nonpayable",
      "type": "function"
    },
    {
      "inputs": [
        {
          "internalType": "uint256",
          "name": "_orderId",
          "type": "uint256"
        }
      ],
      "name": "received",
      "outputs": [],
      "stateMutability": "nonpayable",
      "type": "function"
    }
  ],
  "bytecode": "0x608060405234801561001057600080fd5b5060405161152f38038061152f8339818101604052602081101561003357600080fd5b810190808051906020019092919050505080600160006101000a81548173ffffffffffffffffffffffffffffffffffffffff021916908373ffffffffffffffffffffffffffffffffffffffff1602179055505061149a806100956000396000f3fe608060405234801561001057600080fd5b50600436106100935760003560e01c80639d63a0f1116100665780639d63a0f1146101a8578063a3de0e93146101b2578063a85c38ef14610297578063e46459611461039c578063e66f0a77146103a657610093565b806303606e86146100985780630a4d2669146100c65780632457ec521461012057806359c4db881461017a575b600080fd5b6100c4600480360360208110156100ae57600080fd5b81019080803590602001909291905050506103d4565b005b610108600480360360208110156100dc57600080fd5b81019080803573ffffffffffffffffffffffffffffffffffffffff169060200190929190505050610672565b60405180821515815260200191505060405180910390f35b6101626004803603602081101561013657600080fd5b81019080803573ffffffffffffffffffffffffffffffffffffffff169060200190929190505050610692565b60405180821515815260200191505060405180910390f35b6101a66004803603602081101561019057600080fd5b81019080803590602001909291905050506106b2565b005b6101b0610826565b005b610295600480360360608110156101c857600080fd5b81019080803573ffffffffffffffffffffffffffffffffffffffff169060200190929190803590602001909291908035906020019064010000000081111561020f57600080fd5b82018360208201111561022157600080fd5b8035906020019184600183028401116401000000008311171561024357600080fd5b91908080601f016020809104026020016040519081016040528093929190818152602001838380828437600081840152601f19601f820116905080830192505050505050509192919290505050610a35565b005b6102c3600480360360208110156102ad57600080fd5b8101908080359060200190929190505050610dd6565b604051808673ffffffffffffffffffffffffffffffffffffffff1681526020018573ffffffffffffffffffffffffffffffffffffffff1681526020018473ffffffffffffffffffffffffffffffffffffffff16815260200180602001838152602001828103825284818151815260200191508051906020019080838360005b8381101561035d578082015181840152602081019050610342565b50505050905090810190601f16801561038a5780820380516001836020036101000a031916815260200191505b50965050505050505060405180910390f35b6103a4610f04565b005b6103d2600480360360208110156103bc57600080fd5b8101908080359060200190929190505050611113565b005b600560003373ffffffffffffffffffffffffffffffffffffffff1673ffffffffffffffffffffffffffffffffffffffff16815260200190815260200160002060009054906101000a900460ff16610476576040517f08c379a000000000000000000000000000000000000000000000000000000000815260040180806020018281038252602f8152602001806113e0602f913960400191505060405180910390fd5b806002600082815260200190815260200160002060020160009054906101000a900473ffffffffffffffffffffffffffffffffffffffff1673ffffffffffffffffffffffffffffffffffffffff163373ffffffffffffffffffffffffffffffffffffffff1614610531576040517f08c379a000000000000000000000000000000000000000000000000000000000815260040180806020018281038252603681526020018061137c6036913960400191505060405180910390fd5b60006002600084815260200190815260200160002060040154905060006064606360148403028161055e57fe5b04905060006002600086815260200190815260200160002060010160009054906101000a900473ffffffffffffffffffffffffffffffffffffffff169050600160009054906101000a900473ffffffffffffffffffffffffffffffffffffffff1673ffffffffffffffffffffffffffffffffffffffff1663a9059cbb82846040518363ffffffff1660e01b8152600401808373ffffffffffffffffffffffffffffffffffffffff16815260200182815260200192505050602060405180830381600087803b15801561062f57600080fd5b505af1158015610643573d6000803e3d6000fd5b505050506040513d602081101561065957600080fd5b8101908080519060200190929190505050505050505050565b60056020528060005260406000206000915054906101000a900460ff1681565b60036020528060005260406000206000915054906101000a900460ff1681565b8060005481111561072b576040517f08c379a00000000000000000000000000000000000000000000000000000000081526004018080602001828103825260108152602001807f496e76616c6964206f726465722049440000000000000000000000000000000081525060200191505060405180910390fd5b600560003373ffffffffffffffffffffffffffffffffffffffff1673ffffffffffffffffffffffffffffffffffffffff16815260200190815260200160002060009054906101000a900460ff166107cd576040517f08c379a000000000000000000000000000000000000000000000000000000000815260040180806020018281038252602f8152602001806113e0602f913960400191505060405180910390fd5b336002600084815260200190815260200160002060020160006101000a81548173ffffffffffffffffffffffffffffffffffffffff021916908373ffffffffffffffffffffffffffffffffffffffff1602179055505050565b60001515600360003373ffffffffffffffffffffffffffffffffffffffff1673ffffffffffffffffffffffffffffffffffffffff16815260200190815260200160002060009054906101000a900460ff161515146108cf576040517f08c379a000000000000000000000000000000000000000000000000000000000815260040180806020018281038252602e8152602001806113b2602e913960400191505060405180910390fd5b60001515600560003373ffffffffffffffffffffffffffffffffffffffff1673ffffffffffffffffffffffffffffffffffffffff16815260200190815260200160002060009054906101000a900460ff16151514610978576040517f08c379a000000000000000000000000000000000000000000000000000000000815260040180806020018281038252602e81526020018061140f602e913960400191505060405180910390fd5b6001600360003373ffffffffffffffffffffffffffffffffffffffff1673ffffffffffffffffffffffffffffffffffffffff16815260200190815260200160002060006101000a81548160ff0219169083151502179055506004339080600181540180825580915050600190039060005260206000200160009091909190916101000a81548173ffffffffffffffffffffffffffffffffffffffff021916908373ffffffffffffffffffffffffffffffffffffffff160217905550565b8160008111610aac576040517f08c379a000000000000000000000000000000000000000000000000000000000815260040180806020018281038252600d8152602001807f496e76616c69642070726963650000000000000000000000000000000000000081525060200191505060405180910390fd5b600160009054906101000a900473ffffffffffffffffffffffffffffffffffffffff1673ffffffffffffffffffffffffffffffffffffffff166323b872dd3330846040518463ffffffff1660e01b8152600401808473ffffffffffffffffffffffffffffffffffffffff1681526020018373ffffffffffffffffffffffffffffffffffffffff1681526020018281526020019350505050602060405180830381600087803b158015610b5d57600080fd5b505af1158015610b71573d6000803e3d6000fd5b505050506040513d6020811015610b8757600080fd5b8101908080519060200190929190505050610c0a576040517f08c379a00000000000000000000000000000000000000000000000000000000081526004018080602001828103825260128152602001807f5472616e73616374696f6e204661696c6564000000000000000000000000000081525060200191505060405180910390fd5b83600360008273ffffffffffffffffffffffffffffffffffffffff1673ffffffffffffffffffffffffffffffffffffffff16815260200190815260200160002060009054906101000a900460ff16610cca576040517f08c379a000000000000000000000000000000000000000000000000000000000815260040180806020018281038252601a8152602001807f496e76616c69642072657374617572616e74206164647265737300000000000081525060200191505060405180910390fd5b600080815480929190600101919050555033600260008054815260200190815260200160002060000160006101000a81548173ffffffffffffffffffffffffffffffffffffffff021916908373ffffffffffffffffffffffffffffffffffffffff16021790555084600260008054815260200190815260200160002060010160006101000a81548173ffffffffffffffffffffffffffffffffffffffff021916908373ffffffffffffffffffffffffffffffffffffffff160217905550836002600080548152602001908152602001600020600401819055508260026000805481526020019081526020016000206003019080519060200190610dce9291906112de565b505050505050565b60026020528060005260406000206000915090508060000160009054906101000a900473ffffffffffffffffffffffffffffffffffffffff16908060010160009054906101000a900473ffffffffffffffffffffffffffffffffffffffff16908060020160009054906101000a900473ffffffffffffffffffffffffffffffffffffffff1690806003018054600181600116156101000203166002900480601f016020809104026020016040519081016040528092919081815260200182805460018160011615610100020316600290048015610ef45780601f10610ec957610100808354040283529160200191610ef4565b820191906000526020600020905b815481529060010190602001808311610ed757829003601f168201915b5050505050908060040154905085565b60001515600560003373ffffffffffffffffffffffffffffffffffffffff1673ffffffffffffffffffffffffffffffffffffffff16815260200190815260200160002060009054906101000a900460ff16151514610fad576040517f08c379a000000000000000000000000000000000000000000000000000000000815260040180806020018281038252602e81526020018061140f602e913960400191505060405180910390fd5b60001515600360003373ffffffffffffffffffffffffffffffffffffffff1673ffffffffffffffffffffffffffffffffffffffff16815260200190815260200160002060009054906101000a900460ff16151514611056576040517f08c379a000000000000000000000000000000000000000000000000000000000815260040180806020018281038252602e8152602001806113b2602e913960400191505060405180910390fd5b6001600560003373ffffffffffffffffffffffffffffffffffffffff1673ffffffffffffffffffffffffffffffffffffffff16815260200190815260200160002060006101000a81548160ff0219169083151502179055506006339080600181540180825580915050600190039060005260206000200160009091909190916101000a81548173ffffffffffffffffffffffffffffffffffffffff021916908373ffffffffffffffffffffffffffffffffffffffff160217905550565b806002600082815260200190815260200160002060000160009054906101000a900473ffffffffffffffffffffffffffffffffffffffff1673ffffffffffffffffffffffffffffffffffffffff163373ffffffffffffffffffffffffffffffffffffffff16146111ce576040517f08c379a000000000000000000000000000000000000000000000000000000000815260040180806020018281038252602881526020018061143d6028913960400191505060405180910390fd5b60006002600084815260200190815260200160002060020160009054906101000a900473ffffffffffffffffffffffffffffffffffffffff169050600160009054906101000a900473ffffffffffffffffffffffffffffffffffffffff1673ffffffffffffffffffffffffffffffffffffffff1663a9059cbb8260146040518363ffffffff1660e01b8152600401808373ffffffffffffffffffffffffffffffffffffffff16815260200182815260200192505050602060405180830381600087803b15801561129d57600080fd5b505af11580156112b1573d6000803e3d6000fd5b505050506040513d60208110156112c757600080fd5b810190808051906020019092919050505050505050565b828054600181600116156101000203166002900490600052602060002090601f016020900481019282601f1061131f57805160ff191683800117855561134d565b8280016001018555821561134d579182015b8281111561134c578251825591602001919060010190611331565b5b50905061135a919061135e565b5090565b5b8082111561137757600081600090555060010161135f565b509056fe596f752077657265206e6f742061737369676e65642061732064656c697665727920706572736f6e20746f2074686973206f72646572596f75206861766520616c7265616479206265656e20726567697374657265642061732052657374617572616e74596f752068617665206e6f74206265656e20726567697374657265642061732044656c697665727920506572736f6e596f7520616c7265616479206265656e20726567697374657265642061732044656c697665727920506572736f6e596f752077657265206e6f742074686520637573746f6d657220666f722074686973206f72646572a264697066735822122026ad9419f2d72ce7b30b7b72b54edbfe6537729fd3799033b3d92e7a8f5e2b2764736f6c634300060c0033",
  "immutableReferences": {},
  "source": "pragma solidity ^0.6.0;\n\n\nimport \"openzeppelin-solidity/contracts/token/ERC20/IERC20.sol\";\n\ncontract DlishBlockchain {\n    \n    struct Order {\n        address Customer;\n        address Restaurant;\n        address DeliveryPerson;\n        string dishid_quantity;\n        uint Price;\n        // string[] DishidList;\n    }\n    \n    uint orderid;\n    \n    IERC20 private d2gToken;\n    \n    mapping (uint => Order) public orders;\n    \n    mapping (address => bool) public restaurant;\n    address[] RestauratsList;\n    \n    mapping (address => bool) public deliveryperson;\n    address[] DeliveryPersonList;\n    \n//#################### modifiers ###########################\n    \n    modifier isNotRestaurant(){\n        require(restaurant[msg.sender] == false, \"You have already been registered as Restaurant\");\n        _;\n    }\n    \n    modifier isRestaurant(address _account){\n        require(restaurant[_account], \"Invalid restaurant address\");\n        _;\n    }\n    \n    modifier isPaid(uint _amount){\n        require(_amount>0, \"Invalid price\");\n        require(d2gToken.transferFrom(msg.sender, address(this), _amount), \"Transaction Failed\");\n        _;\n    }\n    \n    modifier isValidOrder(uint _orderId){\n        require(_orderId<=orderid, \"Invalid order ID\");\n        _;\n    }\n    \n    modifier isNotDeliveryPerson(){\n        require(deliveryperson[msg.sender] == false, \"You already been registered as Delivery Person\");\n        _;\n    }\n    \n    modifier isDeliveryPerson(){\n        require(deliveryperson[msg.sender], \"You have not been registered as Delivery Person\");\n        _;\n    }\n    \n    modifier isValidDeliveryPersonForTheOrderId(uint _orderId){\n        require(msg.sender == orders[_orderId].DeliveryPerson, \"You were not assigned as delivery person to this order\");\n        _;\n    }\n    \n    modifier isValidCustomerForTheOrderId(uint _orderId){\n        require(msg.sender == orders[_orderId].Customer, \"You were not the customer for this order\");\n        _;\n    }\n    \n    \n//#################### constructor ############################\n    \n    constructor (address _d2gTokenAddress) public {\n        d2gToken = IERC20(_d2gTokenAddress);\n    }\n    \n//################### Functions ############################\n    \n    function RegisterRestaurant() public isNotRestaurant isNotDeliveryPerson{\n        restaurant[msg.sender] = true;\n        RestauratsList.push(msg.sender);\n    }\n    \n    function RegisterDeliveryPerson() public isNotDeliveryPerson isNotRestaurant{\n        deliveryperson[msg.sender] = true;\n        DeliveryPersonList.push(msg.sender);\n    }\n    \n    function PlaceOrder(address _restaurantaddress, uint _amount, string memory _dishid_quantity) public isPaid(_amount) isRestaurant(_restaurantaddress){\n        orderid++;\n        orders[orderid].Customer = msg.sender;\n        orders[orderid].Restaurant = _restaurantaddress;\n        orders[orderid].Price = _amount;\n        orders[orderid].dishid_quantity = _dishid_quantity;\n    }\n    \n    // function AddDish(uint _orderId, string memory _dishid, uint _quantity) public isValidOrder(_orderId){\n    //     orders[_orderId].dishid_quantity[_dishid] = _quantity;\n    //     orders[_orderId].DishidList.push(_dishid);\n    // } \n    \n    function AcceptOrder(uint _orderId) public isValidOrder(_orderId) isDeliveryPerson{\n       orders[_orderId].DeliveryPerson = msg.sender; \n    }\n    \n    function OutForDelivery(uint _orderId) public isDeliveryPerson isValidDeliveryPersonForTheOrderId(_orderId){\n        uint amount = orders[_orderId].Price;\n        uint resamount = (amount - 20) * 99/100 ;\n        address resaddress = orders[_orderId].Restaurant;\n        d2gToken.transfer(resaddress, resamount );\n    }\n    \n    function received(uint _orderId) public isValidCustomerForTheOrderId(_orderId){\n        address deladdress = orders[_orderId].DeliveryPerson;\n        d2gToken.transfer(deladdress, 20 );\n    }\n    \n}",
  "sourcePath": "/mnt/Programs/Codes/BlockChain/Ethereum/D2g_test/contracts/DlishBlockchain.sol",
  "compiler": {
    "name": "solc",
    "version": "0.6.12+commit.27d51765.Emscripten.clang"
  },
  "schemaVersion": "3.2.4",
  "updatedAt": "2020-09-10T21:23:29.967Z",
  "networkType": "ethereum",
  "devdoc": {
    "kind": "dev",
    "methods": {},
    "version": 1
  },
  "userdoc": {
    "kind": "user",
    "methods": {},
    "version": 1
  }
}