{
  "contractName": "Restaurant",
  "abi": [
    {
      "inputs": [
        {
          "internalType": "string",
          "name": "_name",
          "type": "string"
        }
      ],
      "name": "addRestaurant",
      "outputs": [
        {
          "internalType": "bool",
          "name": "success",
          "type": "bool"
        }
      ],
      "stateMutability": "nonpayable",
      "type": "function"
    },
    {
      "inputs": [],
      "name": "getRestaurants",
      "outputs": [
        {
          "internalType": "address[]",
          "name": "add",
          "type": "address[]"
        }
      ],
      "stateMutability": "view",
      "type": "function"
    }
  ],
  "bytecode": "0x608060405234801561001057600080fd5b5061057f806100206000396000f3fe608060405234801561001057600080fd5b50600436106100365760003560e01c806362b880821461003b5780636d77bd3e1461009a575b600080fd5b61004361016b565b6040518080602001828103825283818151815260200191508051906020019060200280838360005b8381101561008657808201518184015260208101905061006b565b505050509050019250505060405180910390f35b610153600480360360208110156100b057600080fd5b81019080803590602001906401000000008111156100cd57600080fd5b8201836020820111156100df57600080fd5b8035906020019184600183028401116401000000008311171561010157600080fd5b91908080601f016020809104026020016040519081016040528093929190818152602001838380828437600081840152601f19601f8201169050808301925050505050505091929192905050506101f9565b60405180821515815260200191505060405180910390f35b606060018054806020026020016040519081016040528092919081815260200182805480156101ef57602002820191906000526020600020905b8160009054906101000a900473ffffffffffffffffffffffffffffffffffffffff1673ffffffffffffffffffffffffffffffffffffffff16815260200190600101908083116101a5575b5050505050905090565b60007fc5d2460186f7233c927e7db2dcc703c0e500b653ca82273b7bfad8045d85a4706000803373ffffffffffffffffffffffffffffffffffffffff1673ffffffffffffffffffffffffffffffffffffffff16815260200190815260200160002060000160405180828054600181600116156101000203166002900480156102b85780601f106102965761010080835404028352918201916102b8565b820191906000526020600020905b8154815290600101906020018083116102a4575b50509150506040518091039020146102cf57600080fd5b6102d7610499565b6000803373ffffffffffffffffffffffffffffffffffffffff1673ffffffffffffffffffffffffffffffffffffffff168152602001908152602001600020604051806020016040529081600082018054600181600116156101000203166002900480601f0160208091040260200160405190810160405280929190818152602001828054600181600116156101000203166002900480156103b95780601f1061038e576101008083540402835291602001916103b9565b820191906000526020600020905b81548152906001019060200180831161039c57829003601f168201915b5050505050815250509050828160000181905250806000803373ffffffffffffffffffffffffffffffffffffffff1673ffffffffffffffffffffffffffffffffffffffff16815260200190815260200160002060008201518160000190805190602001906104289291906104ac565b509050506001339080600181540180825580915050600190039060005260206000200160009091909190916101000a81548173ffffffffffffffffffffffffffffffffffffffff021916908373ffffffffffffffffffffffffffffffffffffffff1602179055506001915050919050565b6040518060200160405280606081525090565b828054600181600116156101000203166002900490600052602060002090601f016020900481019282601f106104ed57805160ff191683800117855561051b565b8280016001018555821561051b579182015b8281111561051a5782518255916020019190600101906104ff565b5b509050610528919061052c565b5090565b5b8082111561054557600081600090555060010161052d565b509056fea2646970667358221220ff5ed62a2bca48fe9c91ed76e9a77bf4fc2e6f72542f3886c2086eb03af248a664736f6c634300060c0033",
  "immutableReferences": {},
  "source": "pragma solidity ^0.6.0;\n\ncontract Restaurant {\n\n    struct restaurant {\n        string name;\n    }\n    mapping(address=>restaurant) restaurants;\n    address[] restaurantAcc;\n\n    // event TestEvent(string[] names);\n    \n\n    function addRestaurant(string memory _name) public returns (bool success) {\n        require(keccak256(bytes(restaurants[msg.sender].name))==keccak256(\"\"));\n        \n        restaurant memory res = restaurants[msg.sender];\n        res.name = _name;\n        restaurants[msg.sender]=res;\n        \n        restaurantAcc.push(msg.sender);\n        \n        return true;\n    }\n    \n    function getRestaurants() public view returns(address[] memory add){\n        return restaurantAcc;\n    }\n\n    // function getRestaurantNames() public view {\n    //     string[uint(restaurantAcc.length)] memory names;\n    //     for (uint index = 0; index < restaurantAcc.length; index++) {\n    //         names[index]=restaurants[restaurantAcc[index]].name;\n    //     }\n        \n    // }\n}\n",
  "sourcePath": "/mnt/Programs/Codes/BlockChain/Ethereum/D2g_test/contracts/Restaurant.sol",
  "compiler": {
    "name": "solc",
    "version": "0.6.12+commit.27d51765.Emscripten.clang"
  },
  "schemaVersion": "3.2.4",
  "updatedAt": "2020-09-02T13:50:52.210Z",
  "devdoc": {
    "kind": "dev",
    "methods": {},
    "version": 1
  },
  "userdoc": {
    "kind": "user",
    "methods": {},
    "version": 1
  }
}